:020000040800F2
:10000000002800204D2F0008952F0008952F00088C
:10001000952F0008952F0008952F0008000000007C
:10002000000000000000000000000000952F000804
:10003000952F000800000000952F000837220008C7
:10004000952F0008952F0008952F0008952F000880
:10005000952F0008952F0008252300082B23000862
:1000600031230008372300083D230008952F00089E
:10007000952F0008952F0008952F0008952F000850
:10008000952F0008952F0008952F0008952F000840
:10009000952F0008952F0008952F0008432300088E
:1000A000952F0008C51F0008952F0008D91F0008CC
:1000B000DD1F0008F11F000800000000952F000858
:1000C000952F00080000000000000000952F000898
:1000D00000000000552B00086D2B000800000000F8
:1000E00059230008952F0008952F000800000000F4
:1000F0000000000000000000000000000000000000
:0C01000000000000000000005FF808F1A3
:10010C0010F8012B11F8013B012A28BF9A42F7D0B5
:10011C00D01A7047034613F8012B002AFBD1181A8A
:10012C000138704710B5054C237833B9044B13B123
:10013C000448AFF300800123237010BD7C00002025
:10014C0000000000E837000808B5034B1BB1034959
:10015C000348AFF3008008BD0000000080000020C1
:10016C00E837000808B54FF416510E4800F0BCFBF8
:10017C0001211F2002F00AFF01211E2002F006FFC0
:10018C000121062002F002FF0021062002F05CFF94
:10019C0001211F2002F058FFBDE8084000211E205D
:1001AC0002F052BF9800002000230B220A210148C4
:1001BC0000F0A8BA9800002010B533488CB000F0BD
:1001CC008CF8002831DD3049684602F0BBFD6846EA
:1001DC0002F07BFE68462D4902F065FE044630B302
:1001EC0001211F2002F030FF00211E2002F02CFF05
:1001FC000021062002F028FF254909A802F0F8FD8D
:10020C00694606A802F015FE06A909A802F03FFEF1
:10021C0001461D4802F04EFD06A802F0A7FD09A8F4
:10022C0002F0A4FD684602F0A1FD0CB010BD6846BA
:10023C00184902F038FE48B121461F2002F004FF95
:10024C0001211E2002F000FF0121D2E7124903A870
:10025C0002F0CEFD03A909A802F0EBFD694606A841
:10026C0002F0E7FD06A909A802F011FE01460648B6
:10027C0002F020FD06A802F079FD09A802F076FD37
:10028C0003A802F073FDCDE79800002000380008A9
:10029C00043800080D38000813380008014800F035
:1002AC00FFB800BF980000200020704790F86A202B
:1002BC0090F869309A420DD090F86A30034493F864
:1002CC00292090F86A30013303F03F0380F86A303C
:1002DC00104670474FF0FF30704790F8693090F837
:1002EC006A2003F14000801A434203F03F0300F000
:1002FC003F0058BF5842704772B6002380F86930EF
:10030C0080F86A3062B6704790F86A2090F86930CD
:10031C009A421DBF90F86A30C01890F829004FF02F
:10032C00FF307047012A02D1016000207047022A79
:10033C0005D0032AF9D0002AF7D10260F5E70B6843
:10034C000360F2E7036818477FB5204D0C462B6815
:10035C008B4236D01E4801F003FC1D48002C32D0D5
:10036C0001F0B8FD01214FF6FE7204EB4403B0FB23
:10037C00F3F6964202D940084900F8E7144801F018
:10038C002CFD00223146124801F0D0FD002210480D
:10039C00114601F0F1FD002301930E4B69460093C9
:1003AC000D4B0B4803930D4B029301F073FE029B14
:1003BC001BB16946032208469847054801F0B9FC71
:1003CC002C6004B070BD01F0DAFCF9E708010020E4
:1003DC002C010020ED060008510300083103000831
:1003EC0090F82810D0E907238907C3F30F234FF0A7
:1003FC000101408A4CBF5361136102F0C7BD90F8F4
:10040C002830008A13F0020F0CBF0221032102F0E6
:10041C00BDBD000090F8283070B55B0704460E4651
:10042C000ED50B4D2B6861B1834209D0FFF7E7FF66
:10043C004FF0FF32074B1A600222074B1A602C60F8
:10044C0070BD8342FCD1FFF7CBFF2E60F8E700BFF5
:10045C0020010020000000201801002038B50D4DAF
:10046C0004462B68834213D10B4B19680029FCD12D
:10047C0094F828305B0702D52046FFF7CBFF00210C
:10048C00064B204629601960FFF75EFF012038BD3E
:10049C000020FCE72801002024010020200100207E
:1004AC0010B50446024B0360FFF7D8FF204610BD81
:1004BC003038000810B50446FFF7F2FF20467021D3
:1004CC0001F03BFE204610BDF8B50446144F3868C9
:1004DC00A04222D0134E3368002BFCD108B1FFF799
:1004EC00BDFF01254FF0FF320F4B20461D600F4B17
:1004FC00616A1A60FFF728FF94F828303C605B07AC
:10050C0003D40B4B1C600120F8BD3368002BFAD1CF
:10051C0029462046FFF77EFFF5E70020F4E700BFF1
:10052C0028010020240100201801002000000020D8
:10053C002001002070B5044690F82830184D43F087
:10054C00080380F828302B68002BFCD194F8282065
:10055C00144B4900920741F40071196048BFC9431C
:10056C004FF000064FF0030248BF19600E4B2046B7
:10057C001E600E4B616A1A60FFF7E6FE94F8283095
:10058C005B0703D531462046FFF744FF94F828302B
:10059C00012023F0080384F828302C6070BD00BFC4
:1005AC002401002014010020100100201C01002057
:1005BC00184A38B51168034601390029116013DC5B
:1005CC00154D29684C1C09292C600EDCD3E9074316
:1005DC001248C3F30F230168CD074CBF236163613D
:1005EC00032349080160136038BD0121116090F8A4
:1005FC002820150703D50022094B1A60F4E7192CA3
:10060C00F2DD5207F7D5074A12688242F3D1FFF7A1
:10061C0001FFF0E71C010020100100201401002054
:10062C0024010020280100202A4A70B51368013BE0
:10063C00002B13603EDC436981699B68264CDB43CD
:10064C0003EA11239BB2B3FA83F3216890F8285084
:10065C00B1F1FF3F4FEA5313C5F340060AD19E4256
:10066C0005BF042100230123116004BF1B4A236032
:10067C0013601FE007291EDD9E4216D090F86930EA
:10068C0090F86A10013303F03F0399421FBF134DDA
:10069C0090F869102D6809180BBF45F0010581F819
:1006AC00295080F8285080F86930012313604FF0EE
:1006BC00FF33236070BD094D9E42286801F1010192
:1006CC004FEA500018BF40F08000032328602160DF
:1006DC00CEE700BF18010020000000200C01002014
:1006EC0008B5064B1A6812B11868FFF79DFF044B4A
:1006FC001A6812B11868FFF75BFF08BD20010020D3
:10070C0024010020F8B504460D4600204FF47A7100
:10071C00EEB2C4E901016F49222E2160258262826A
:10072C002AD86D4F05F4E06157F8267017F0C00F0A
:10073C0041EA070102BF6948C1F3031150F82100D7
:10074C00222E606129D8644951F8261001F00F015E
:10075C00634FD0B257F821102228A1612ED8DFF8B0
:10076C0078C102F4E0615CF820C01CF0C00F41EAD3
:10077C000C0135D0002139E005F0C001C029DFD1D2
:10078C00C92EDDD8574905F03F0751F827C0524F05
:10079C0005F4E06157F82C70C8E705F0C001C029DA
:1007AC000AD1C92E08D84F4905F03F0051F8200056
:1007BC00494951F82010C9E70F21C9E702F0C001DF
:1007CC00C029D7D1C928D5D8464902F03F0C51F8D9
:1007DC002CE0DFF804C102F4E0615CF82EC0C4E741
:1007EC00DFF8F8C0C1F303115CF821102228E16195
:1007FC002BD8394951F8201001F00F0157F821106E
:10080C00A5EB020C21620021DCF1000747EB0C0781
:10081C005B0043EA870394F8287003F00F0327F07A
:10082C000F073B43222884F86910616284F8283052
:10083C0084F86A10E16619D8274B53F82000C0F3EE
:10084C00031001F07DFC10BBFEE702F0C001C029D3
:10085C000AD1C92808D8234902F03F0C51F82CC002
:10086C001D4951F82C10C7E70F21C7E702F0C00350
:10087C00C02B0AD1C92808D81A4B02F03F0253F8F2
:10088C002220154B53F82200D9E70F20D9E794F812
:10089C0028305B071BD4222E08D80F4B53F82600A8
:1008AC00C0F3031001F04CFC88B9FEE705F0C0035F
:1008BC00C02B0AD1C92E08D80A4B05F03F0553F8B6
:1008CC002520054B53F82200EAE70F20EAE72046E3
:1008DC00F8BD00BF30380008303B00080C00002089
:1008EC007C380008083B000810B590F82830044606
:1008FC005B07416209D4FFF773FD2046FFF77FFDCC
:10090C002046BDE81040FFF7DFBDFFF769FD10BDC5
:10091C000149024801F076BB000400402C01002084
:10092C00014801F075BA00BF2C010020704700008F
:10093C0038B50E4B05461A784FF47A73B3FBF2F3C5
:10094C000B4A1068B0FBF3F000F09CF8044658B961
:10095C000F2D09D8024629464FF0FF3000F042F81F
:10096C002046044B1D6038BD0120FCE7040000202C
:10097C002400002008000020074A08B51368032053
:10098C0043F01003136000F01BF80020FFF7D0FFBA
:10099C00FFF7CCFF002008BD00200240034A044BA7
:1009AC0011681B780B441360704700BFDC010020FA
:1009BC0004000020014B1868704700BFDC010020C8
:1009CC0007490302CA6803F4E06322F4E0621204EC
:1009DC00120C134343F0BF6343F40033CB607047F6
:1009EC0000ED00E0154B30B5DC68C4F30224C4F113
:1009FC000703251D042B28BF0423062D4FF0FF35BC
:100A0C0094BF0024033C05FA03F321EA0303A54039
:100A1C0022EA0502A340002843EA0203ACBF00F11E
:100A2C006040074A4FEA0313DBB2ABBF00F56140ED
:100A3C0000F00F0080F80033135430BD00ED00E0DF
:100A4C0014ED00E0002807DB01234109034A00F004
:100A5C001F00834042F82130704700BF00E100E0E6
:100A6C0000280CDB01220649430900F01F008240DC
:100A7C00203341F82320BFF34F8FBFF36F8F7047A4
:100A8C0000E100E00138B0F1807F0BD24FF0E023A1
:100A9C00F021054A586182F8231000200722986142
:100AAC001A6170470120704700ED00E0002808DB58
:100ABC0001224309034900F01F008240603341F8D2
:100ACC002320704700E100E0704708B5FFF7FCFFFA
:100ADC0008BD704710B5044650B1437903F0FF02CE
:100AEC0013B90271FFF7F5FF01230020637110BDEC
:100AFC000120FCE790F821200346022A06D00422AC
:100B0C0082630120002283F8202070470268C06BAA
:100B1C00116821F00E011160116821F001011160C2
:100B2C0001211A6C01FA02F24260002083F82110B4
:100B3C00E8E7000008B590F82130022B03D004231D
:100B4C008363012008BD03681A6822F00E021A6044
:100B5C001A6822F001021A60174A93421FD014320D
:100B6C0093421ED0143293421DD0143293421DD0A6
:100B7C00143293421DD01432934214BF4FF0807341
:100B8C004FF480130D4A5360012380F82130002369
:100B9C0080F82030436B03B198470020D2E7012343
:100BAC00F0E71023EEE74FF48073EBE74FF480533C
:100BBC00E8E74FF48033E5E708000240000002400C
:100BCC00044A08B55169014202D0506101F08EFB14
:100BDC0008BD00BF000401402DE9F341054638B3C0
:100BEC000368DB0710D42B689F075ED42B681907AA
:100BFC0000F195802B685A0700F1C180EB69002B3E
:100C0C0040F02C81002029E0904C636803F00C0329
:100C1C00042B07D0636803F00C03082B0AD163681C
:100C2C00DE0307D523689C03DDD56B68002BDAD176
:100C3C00012013E06B68B3F5803F12D1236843F4B5
:100C4C0080332360FFF7B6FE064623689803CAD4A8
:100C5C00FFF7B0FE801B6428F7D9032002B0BDE873
:100C6C00F0819BB9236823F480332360236823F439
:100C7C0080232360FFF79EFE064623689903B2D5B6
:100C8C00FFF798FE801B6428F7D9E6E7B3F5A02F91
:100C9C00236803D143F480232360CFE723F480330C
:100CAC002360236823F48023CBE7684C636813F03C
:100CBC000C0F07D0636803F00C03082B10D163688A
:100CCC00DA030DD423689B0702D52B69012BAFD116
:100CDC0023686A6923F0F80343EAC203236085E7BB
:100CEC002A695B4B6AB101221A60FFF763FE064664
:100CFC0023689F07ECD4FFF75DFE801B0228F7D911
:100D0C00ABE71A60FFF756FE0646236898077FF597
:100D1C006DAFFFF74FFE801B0228F6D99DE7AA693D
:100D2C004A4E4B4BE2B10122C3F88024FFF742FE3E
:100D3C000446736A9B070DD54FF4FA52454B1B685A
:100D4C00B3FBF2F3019300BF019B5A1E0192002BDF
:100D5C00F9D14FE7FFF72EFE001B0228E9D97CE7FB
:100D6C00C3F88024FFF726FE0446736A9F077FF5BD
:100D7C0041AFFFF71FFE001B0228F6D96DE7334C7D
:100D8C00E369D80024D40127E36943F08053E3617D
:100D9C00E36903F080530093009B2F4E3368D90511
:100DAC0018D5EB68012B26D1236A43F0010323628B
:100DBC00FFF700FE41F288380646236A9B073FD5B1
:100DCC00002F3FF41BAFE36923F08053E36115E779
:100DDC000027E2E7336843F480733360FFF7EAFDE2
:100DEC0080463368DA05DCD4FFF7E4FDA0EB08009D
:100DFC006428F6D931E7ABB9236A41F2883823F07D
:100E0C0001032362236A23F004032362FFF7D2FD5C
:100E1C000646236A9807D3D5FFF7CCFD801B4045C7
:100E2C00F7D91AE7052B236A03D143F00403236295
:100E3C00BAE723F001032362236A23F00403B6E725
:100E4C00FFF7B8FD801B4045B7D906E700100240FC
:100E5C000000424224000020007000402A4C6268CE
:100E6C0002F00C02082A3ED00022022B274B1A66F5
:100E7C002CD1FFF79FFD06462368990120D42B6ADD
:100E8C00B3F5803F05D16268A96822F400320A43A9
:100E9C006260696A62680B4322F474121343012284
:100EAC0063601A4B1A66FFF785FD054623689A01A5
:100EBC003FF5A8AEFFF77EFD401B0228F6D9CCE625
:100ECC00FFF778FD801B0228D6D9C6E6FFF772FD26
:100EDC00054623689B017FF595AEFFF76BFD401B24
:100EEC000228F6D9B9E6012B3FF4A2AE60682B6A52
:100EFC0000F480329A427FF49BAE6B6A00F470105F
:100F0C00C01A18BF0120A9E600100240000042429E
:100F1C000D4A536803F00C01082912D10B48C3F396
:100F2C008341DB03405C09D55368094AC3F3404352
:100F3C005043084AD35CB0FBF3F07047064B584360
:100F4C0070470348704700BF001002405E3800082D
:100F5C0000127A005C38000800093D002DE9F041D0
:100F6C000D46044610B90120BDE8F081444A1368CF
:100F7C0003F007038B4228D321688E0730D4CA07AD
:100F8C0043D43F4A136803F00703AB4265D8226889
:100F9C003C4D12F0040F6CD1130706D56B68226917
:100FAC0023F4605343EAC2036B60FFF7B1FF6B6835
:100FBC00354AC3F30313D35CD840344B1860344B1D
:100FCC001868FFF7B5FC0020CEE7136823F0070381
:100FDC000B431360136803F007038B42C3D1CBE7B9
:100FEC00284B11F0040F1EBF5A6842F4E0625A609D
:100FFC00080742BF5A6842F460525A605A68A068A7
:10100C0022F0F00202435A60B9E762681D4E012AD1
:10101C0033681AD113F4003FA5D0736841F28838B5
:10102C0023F0030313437360FFF7C4FC0746736894
:10103C00626803F00C03B3EB820FA2D0FFF7BAFC8B
:10104C00C01B4045F3D903208EE7022A02D113F0CE
:10105C00007FE1E713F0020FDEE7136823F00703CC
:10106C002B431360136803F00703AB427FF47BAF91
:10107C008DE76B68E16823F4E0630B436B608BE7EF
:10108C000020024000100240C43800082400002058
:10109C0008000020044B054A5B68C3F30223D35CB1
:1010AC00034A1068D840704700100240BC38000852
:1010BC0024000020044B054A5B68C3F3C223D35CB5
:1010CC00034A1068D840704700100240BC38000832
:1010DC00240000200F2303600B4B5A6802F003021C
:1010EC0042605A6802F0F00282605A6802F4E062D0
:1010FC00C2605B68DB0803F4E0630361034B1B68AD
:10110C0003F007030B607047001002400020024000
:10111C0003682DE9F3410546D80721D5364CE36920
:10112C00D9002BD40126E36943F08053E361E369D2
:10113C0003F080530193019B304F3B68DA051FD5B8
:10114C00236A6A6813F440732ED1236A6A6823F405
:10115C004073134323621EB1E36923F08053E361B0
:10116C002A68910706D52449A8684B6823F44043A4
:10117C0003434B60D30636D4002012E00026DBE795
:10118C003B6843F480733B60FFF714FC80463B687C
:10119C00DB05D5D4FFF70EFCA0EB08006428F6D9CC
:1011AC00032002B0BDE8F08102F440729A42CCD028
:1011BC000120134A236AC2F84004002023F4407132
:1011CC00DF07C2F840042162BFD5FFF7F3FB41F201
:1011DC0088380746236A9807B7D4FFF7EBFBC01B88
:1011EC004045F7D9DCE7044AE968536823F48003E7
:1011FC000B435360C0E700BF00100240007000407A
:10120C000000424290F83D30012B18D102230D4AC8
:10121C0080F83D300368934206D0B3F1804F03D081
:10122C00A2F59432934204D19A6802F00702062A7E
:10123C0003D01A6842F001021A60002070470120A6
:10124C00704700BF002C014041F211120368196A6B
:10125C00114208D140F24442196A114202BF1A6885
:10126C0022F001021A60012380F83D300020704703
:10127C0090F83C200346012A4FF0020009D01A686E
:10128C0083F83D0051610020012283F83C0083F873
:10129C003D20704770477047036870B5DD681E6964
:1012AC000446B1070DD5AA070BD56FF002021A61DF
:1012BC00012202779B699B0769D000F03AFF00235B
:1012CC002377710710D56A070ED56FF004022368D7
:1012DC0020461A61022222779B6913F4407F5CD06E
:1012EC0000F027FF0023237733070FD528070DD5F0
:1012FC006FF00802236820461A6104222277DB690A
:10130C00990750D000F015FF00232377F20610D573
:10131C00EB060ED56FF01002236820461A610822E6
:10132C002277DB6913F4407F43D000F002FF0023E7
:10133C002377F00708D5E90706D56FF0010223687B
:10134C0020461A6100F0D2FE320608D52B0606D5CF
:10135C006FF08002236820461A6100F096F970063F
:10136C0008D5690606D56FF04002236820461A613D
:10137C00FFF791FFB20622D5AB0620D56FF0200205
:10138C0023682046BDE870401A6100F07DB900F07A
:10139C00CEFE2046FFF77EFF91E700F0C8FE204608
:1013AC00FFF778FF9EE700F0C2FE2046FFF772FFC2
:1013BC00AAE700F0BCFE2046FFF76CFFB7E770BD54
:1013CC00154A0368904206D0B0F1804F03D0A2F5C5
:1013DC009432904207D14A6823F070031343CA68D1
:1013EC0023F4407313434A6923F0800313430360CF
:1013FC008B68C3620B688362074B984204BF0B690E
:10140C000363012343610369DB0742BF036923F0D4
:10141C0001030361704700BF002C014010B5044666
:10142C0030B390F83D3003F0FF021BB980F83C203C
:10143C0001F0A8FA0223206884F83D30211DFFF743
:10144C00BFFF0123002084F8463084F83E3084F836
:10145C003F3084F8403084F8413084F8423084F8CE
:10146C00433084F8443084F8453084F83D3010BD66
:10147C000120FCE710B50124036A01F01F018C4028
:10148C0023EA04030362036A8A401A43026210BD12
:10149C0008B529B990F83E30012B1DD001202EE063
:1014AC00042907D190F83F30012BF7D1022380F8A3
:1014BC003F3014E0082907D190F84030012BEDD1D2
:1014CC00022380F840300AE090F84130012BE5D13E
:1014DC00022380F8413002E0022380F83E3000689D
:1014EC000122FFF7C7FF0D4B984209D0B0F1804F96
:1014FC000BD1836803F00703062B09D1002008BD2C
:10150C00436C43F400434364F3E7054B9842F0D03B
:10151C00036843F001030360F0E700BF002C0140B7
:10152C0000040040FFF7B4BF08B5034621BB90F898
:10153C003E0093F84220C0B20128D2B249D1012A10
:10154C0019D1022271BB83F83E2083F8422018681F
:10155C000122FFF78FFF204B984206D0B0F1804F4D
:10156C0003D0A3F5943398422ED1836803F007037C
:10157C00062B29D1002008BD042905D190F83F0085
:10158C0093F84320C0B2D7E708290BBF90F840006E
:10159C0093F8410093F8442093F845200CBFC0B257
:1015AC00C0B2C9E7042904D183F83F2083F8432053
:1015BC00CDE708290BBF83F8402083F8412083F83E
:1015CC00442083F84520C2E7036843F0010303601D
:1015DC00D0E70120CFE700BF002C014010B5042458
:1015EC00036A01F00F018C4023EA04030362036ACF
:1015FC008A401A43026210BD08B529B990F84230EE
:10160C00012B1DD001203AE0042907D190F843307A
:10161C00012BF7D1022380F8433014E0082907D1BD
:10162C0090F84430012BEDD1022380F844300AE0CD
:10163C0090F84530012BE5D1022380F8453002E0CB
:10164C00022380F8423000680422FFF7C7FF436C86
:10165C0043F4004343640A4B984206D0B0F1804FE8
:10166C0003D0A3F59433984204D1836803F00703A5
:10167C00062B03D0036843F001030360002008BD70
:10168C00002C0140FFF7B8BF70477047026802F1A9
:10169C000C0353E8003F23F490730C3242E8003102
:1016AC0002680029F2D102F1140353E8003F23F041
:1016BC00010302F1140C4CE800310029F3D1036B47
:1016CC00012B0BD102F10C0353E8003F23F0100364
:1016DC0002F10C0C4CE800310029F3D1202380F8E6
:1016EC00423000230363704790F84130202B10D117
:1016FC0089B182B1C28482840023212201620168F3
:10170C00436480F84120CA68184642F08002CA60DF
:10171C007047022070470120704708B50023406ACB
:10172C00C385C38401F0D2F908BD704790F84230EC
:10173C0007B5222B42D181680268B1F5805F836ABC
:10174C003FD1016900293FD15268C2F3080223F846
:10175C00022B8362C38D013B9BB2C385002B2DD121
:10176C000268D16821F02001D160D16821F4807128
:10177C00D160516921F001015161202280F8422091
:10178C004363026B012A026828D1036302F10C0344
:10179C0053E8003F23F0100302F10C0C4CE800312D
:1017AC000029F3D11368DB0605D501911368019369
:1017BC0053680193019B818DFFF7B7FF03B05DF870
:1017CC0004FB39B9016929B95268D2B21A70836A1B
:1017DC000133BEE7526802F07F02F7E701F070F9BF
:1017EC00ECE70000036873B51A6804461607D9685D
:1017FC005D6908D1960668D58D0666D502B0BDE840
:10180C007040FFF793BF05F0010001F4907505439C
:10181C005BD0D60705D5CD0542BF636C43F0010301
:10182C006364530704D518B1636C43F0020363641B
:10183C00960704D518B1636C43F004036364150771
:10184C0007D501F0200303431EBF636C43F008036C
:10185C006364636C002B32D0920604D58B0602D5E0
:10186C002046FFF763FF266820467369626C03F01D
:10187C00400302F0080253EA020522D0FFF706FFEC
:10188C0073695E0618D5226802F1140353E8003F11
:10189C0023F04003143242E800310029F3D1E06B0D
:1018AC0050B1744B4363FFF745F940B1E06B436BA8
:1018BC0002B0BDE870401847204601F007F902B0AD
:1018CC0070BD01F003F96564F9E7206B012840F065
:1018DC009480D50640F19180C80640F18E8000229C
:1018EC0001921A6801925A680192019A5A69520639
:1018FC004DD5E16B0A68526892B2002ADFD0A08DF8
:10190C009042DCD9E2858A69202A36D003F10C0298
:10191C0052E8002F22F4807203F10C0040E8002101
:10192C000029F3D103F1140252E8002F22F0010236
:10193C0003F1140040E800210029F3D103F1140253
:10194C0052E8002F22F0400203F1140040E800217D
:10195C000029F3D1202284F84220216303F10C02E8
:10196C0052E8002F22F0100203F10C0040E8002195
:10197C000029F3D1E06BFFF7BDF802236363E38D1D
:10198C00A18DC91A89B22046FFF7CFFE97E7E28DE9
:10199C00E08DA18D80B292B2002890D0891A89B2C4
:1019AC0000298CD003F10C0252E8002F22F4907223
:1019BC0003F10C0545E800200028F3D103F11402D3
:1019CC0052E8002F22F0010203F1140545E8002033
:1019DC000028F3D1202284F84220206303F10C026A
:1019EC0052E8002F22F0100203F10C0545E800200C
:1019FC000028F3D102236363C5E7160628D50D062C
:101A0C0026D594F84120212A7FF459AFA168226A87
:101A1C00B1F5805F17D12169A9B932F8021BC1F366
:101A2C00080159602262E28C013A92B2E284002AE7
:101A3C007FF445AFDA6822F08002DA60DA6842F0AF
:101A4C004002DA603BE7511C216212785A60EAE7E7
:101A5C0050067FF534AF4A067FF531AFDA68204681
:101A6C0022F04002DA60202384F8413001F02BF898
:101A7C0025E700BF2717000890F84030012B11D044
:101A8C002423026880F84130D36823F00C0343F020
:101A9C000803D360202380F84130002380F84030C5
:101AAC00184670470220704790F84030012B11D037
:101ABC002423026880F84130D36823F00C0343F0F0
:101ACC000403D360202380F84130002380F8403099
:101ADC00184670470220704790F8412090F8420059
:101AEC00104370470023C285436422238285026918
:101AFC0080F84230816203681AB1DA6842F480726D
:101B0C00DA605A69002042F001025A61DA6842F048
:101B1C002002DA60704770B490F84260202E06D133
:101B2C0041B13AB10024046370BCFFF7DBBF022063
:101B3C0070BC70470120FBE7836810B504462BB1DD
:101B4C000322014698470023C4E9023310BD836881
:101B5C0010B5044613B1032201469847204610BD28
:101B6C0010B5044650F8103FDA6822F00102DA6032
:101B7C00DA6822F00202DA60DA6822F00402DA6033
:101B8C00DA6822F00802DA60DA6822F01002DA6011
:101B9C00FFF75AFB2269136823F00103136001233A
:101BAC0084F84E3084F84F3084F8503084F851303B
:101BBC0084F8523084F8533084F8543084F855301B
:101BCC0010BD4B1E032B00D9FEE78900081F704780
:101BDC000139435C13F0100004D0022916D80C4ACA
:101BEC0032F81100DB0712D503290FD8DFE801F01A
:101BFC000205080B40F00100704740F010007047E0
:101C0C0040F48070704740F480507047FEE7704796
:101C1C00763800080139032900D9FEE7014B585CDE
:101C2C00704700BF723800080139032900D9FEE75C
:101C3C00014B585C704700BF6E3800082DE9F0412D
:101C4C000E460446FFF7BDFF06F106080546314671
:101C5C00204604EB0818FFF7DDFFD8F808302BB14D
:101C6C00C24323691A61DA680243DA60771E04EB17
:101C7C0047039B880B2B49D8DFE803F05118181841
:101C8C00060618184A4A4A2AE35DDE0604D5294698
:101C9C0004F11000FFF7F6FCE35DD80736D52946B2
:101CAC0004F11000BDE8F041FFF73CBCE35DD90640
:101CBC0004D5294604F11000FFF79EFCE35DDA071A
:101CCC0024D5294604F11000BDE8F041FFF7E0BB34
:101CDC00294604F11000FFF727FC31462046FFF798
:101CEC00A3FF014606462046FFF772FF25692B6AC3
:101CFC001843D8F80830286243B131462046FFF724
:101D0C0089FFC3432B61EB681843E860BDE8F081A1
:101D1C00294604F11000BDE8F041FFF705BC23692A
:101D2C001B68DB07F2D404F11000BDE8F041FFF7AB
:101D3C0069BA70B5012504462946861C36F8023F5F
:101D4C0023B129462046FFF779FF00210135052DE7
:101D5C00F4D1A36E3BB16FF0010223691A61DA680A
:101D6C0042F00102DA6049B123691B68DB0705D434
:101D7C0004F11000BDE87040FFF744BA70BD026971
:101D8C006030D36823F00103D360FFF7D5BE012187
:101D9C001030FFF76DBA0369186800F00100704746
:101DAC0010B502460C46FFF7F6FF80B9CB68DB078F
:101DBC000ED5CB68104623F00103CB60FFF7E7FF8D
:101DCC006FF001032361E36843F00103E36010BD8E
:101DDC001046BDE81040FFF7DABF0B460169013B26
:101DEC008B62FFF7DDBF0000084B984207D0B0F1C3
:101DFC00804F06D0A3F59433984204D0FEE7002020
:101E0C007047012070470220704700BF002C014032
:101E1C00024670B5044652F8100FFFF7E5FF054671
:101E2C00104600F05BFD0023084AE36042F82530C1
:101E3C0004F1600604F1B005B54204D0103D28460B
:101E4C00FFF785FEF8E7204670BD00BFE0010020DB
:101E5C00F8B504460846FFF7C7FF236903B1FEE750
:101E6C001B4D04F10C0245F820200E2204F1100643
:101E7C003046C4E90C33C4E90E33C4E91033C4E969
:101E8C001623216184F82C30A36484F84C3084F838
:101E9C004D30E46000F0EEFC04F1600504F1B00795
:101EAC0028461035FFF748FEBD42F9D100234FF606
:101EBC00FF72C4E90033C4E90632C4E90833A360F5
:101ECC00636180233046A362BDE8F840FFF7A6BAF1
:101EDC00E001002010B586B014220446002101A8B0
:101EEC0001F088FB0023694601A80093FFF7F2F884
:101EFC00206900F06FFD012802D002280FD0FEE708
:101F0C00049CFFF7C7F8B4F5C06F05D00BD824F4C8
:101F1C008074B4F5806F00D1400006B010BD059CF4
:101F2C00FFF7C8F8EFE7B4F5E06FF4E7012A38B52E
:101F3C0005460C460BD0022A16D004B1013C296987
:101F4C002846CC62EC61BDE83840FFF729BFFFF7AB
:101F5C00C1FF084BB0FBF3F044432A69230C936296
:101F6C000133B4FBF3F4E8E7FFF7B4FFB0FBF4F490
:101F7C00F3E700BF40420F00036970B59D6A012A68
:101F8C0006460C4605F1010504D0022A0BD0336934
:101F9C005C6270BDFFF79EFF064BB0FBF3F363432F
:101FAC00B3FBF5F4F3E7FFF795FF6543B0FBF5F4EE
:101FBC00EDE700BF40420F00034B186810B104302E
:101FCC00FFF76AB9704700BFE0010020FFF7F4BFCC
:101FDC00034B586810B10430FFF75EB9704700BF6F
:101FEC00E0010020034B986810B10430FFF754B99E
:101FFC00704700BFE00100200022C0E90022C0E9C8
:10200C0002227047F8B504460E4600F1600500F157
:10201C00B00728461035FFF7EFFFBD42F9D100237A
:10202C00204631462361FFF713FF2046F8BD38B533
:10203C000023C0E90033C0E902338B6804460D4627
:10204C002BB102229847EB68E360AB68A360204693
:10205C0038BD30B587B002AD04462846FFF7E7FF20
:10206C0095E803006B4683E8030094E8030085E8D9
:10207C00030093E80300049BA268A360059B0492F1
:10208C00E26884E80300E36028460592FFF75FFDF1
:10209C0007B030BD38B5836E04460D4660301BB1B9
:1020AC00BDE83840FFF7D5BFFFF7D3FFAB683BB1B6
:1020BC006FF0010223691A61DA6842F00102DA60FA
:1020CC0038BD826810B50AB901F084FBC368BDE85D
:1020DC001040184708B500B9FEE700F0C9FB0068CE
:1020EC00836E13B16030FFF7ECFF08BDFFF7F2BF52
:1020FC0010B500B9FEE7037F013B072B10D8DFE8D2
:10210C0003F004140F100F0F0F12012400F0B0FB9A
:10211C000068063400EB041083680BB1FFF7D1FFA5
:10212C0010BD0324F2E70424F0E70224EEE7FFF7E6
:10213C00DFBFFFF7DDBF01F061B901F067B9000047
:10214C0084B0032834D8DFE800F0020F1B27194BAA
:10215C0019489A6942F004029A619B6903F00403DE
:10216C000093009B04B07047124B14489A6942F0DC
:10217C0008029A619B6903F008030193019BF1E744
:10218C000C4B0F489A6942F010029A619B6903F05C
:10219C0010030293029BE5E7064B0A489A6942F04A
:1021AC0020029A619B6903F020030393039BD9E7F8
:1021BC000020D7E70010024000080140000C01404D
:1021CC000010014000140140F8B51449074600F016
:1021DC0012FBFFF709FE124E044656F8203073B975
:1021EC00B020FFF7A8FF0D490546384600F003FB69
:1021FC0001462846FFF706FF56F824301D6056F8B6
:10220C0024301C6844B12046FFF702FE2046BDE88E
:10221C00F840B021FFF791BFF8BD00BF343900087A
:10222C00E0010020FEF7C6BB704708B5FEF7B6FB11
:10223C00FEF74BFCFFF7F8FF08BD70470F4B84B05F
:10224C00DA6942F08052DA61DA6902F08052019266
:10225C00019A9A6942F001029A619A6902F00102AC
:10226C000292029A5A6942F040025A615B6903F089
:10227C0040030393039B04B0704700BF001002405F
:10228C000C4BD3F8FC20D2015EBFD3F8FC2042F0FB
:10229C008072C3F8FC200022074B5A601A6842F087
:1022AC0001021A6000BF00BF00BF5868B0FA80F08E
:1022BC004009704700ED00E0001000E008B5FFF7A2
:1022CC00BDFFFFF7DDFFFEF757FBFFF7B6FF00F092
:1022DC007FFCBDE808400148FEF7FCBB1C00002059
:1022EC000023C0E90033C0E9023370470023012802
:1022FC0003F101020AD11422DBB25343054A181D23
:10230C001044816829B11A441369184713464008D0
:10231C00EDE77047EC0100200120FEF751BC0220D4
:10232C00FEF74EBC0420FEF74BBC0820FEF748BC61
:10233C001020FEF745BC38B505242025A8B2FEF7C1
:10234C003FFC013C4FEA4505F8D138BD38B50624B1
:10235C004FF48065A8B2FEF733FC013C4FEA45050B
:10236C00F8D138BD344A08B51046062300F8043BB2
:10237C00FFF7B6FF072302F118001375FFF7B0FF44
:10238C00082302F12C0082F82830FFF7A9FF09235B
:10239C0002F1400082F83C30FFF7A2FF0A2317211C
:1023AC0002F1540082F85030FFF79AFF02F16800F6
:1023BC0082F86410FFF794FF02F17C0082F8781029
:1023CC00FFF78EFF02F1900082F88C10FFF788FF68
:1023DC0002F1A40082F8A010FFF782FF82F8B4107B
:1023EC00282102F1B800FFF77BFF02F1CC0082F844
:1023FC00C810FFF775FF02F1E00082F8DC10FFF760
:10240C006FFF02F1F40082F8F010FFF769FF02F59C
:10241C00847082F80411FFF763FF02F58E7082F866
:10242C001811FFF75DFFBDE8084002F5987082F8BF
:10243C002C11FFF755BF00BFEC01002038B5054C3F
:10244C00A4F5A075143C201DFFF781FBAC42F9D11B
:10245C0038BD00BF2C030020614B82B09A69013853
:10246C0042F001029A619B6903F001030193019B05
:10247C0023281AD8DFE800F0121B22292E353A4106
:10248C00191919464D565B626B74798089191919A3
:10249C0019198E95191919199A9FA6AD514A536895
:1024AC0043F0E06343F00103536002B070474D4AC0
:1024BC00536823F0010343F0E063F5E7494A53689E
:1024CC0043F0E06343F00203EEE7464A536823F01F
:1024DC000203F0E7434A536843F0E06343F004031C
:1024EC00E2E7404A536823F00403E4E73D4A5368AB
:1024FC0043F0E06343F00803D6E73A4A536823F00D
:10250C000803D8E7374A536843F0E06343F0C0034D
:10251C00CAE7344A536823F0C00343F0E06343F046
:10252C004003C1E72F4A536823F0C003C3E72D4A89
:10253C00536843F0E06343F44073B5E7294A5368AA
:10254C0023F4407343F0E06343F40073ACE7254A93
:10255C00536823F4407343F0E06343F48073A3E7C0
:10256C00204A536823F44073A5E71E4A536843F08E
:10257C00E06343F4406397E71A4A536823F44063DB
:10258C0043F0E06343F400638EE7164A536823F488
:10259C00406390E7134A536843F0E06343F400430D
:1025AC0082E7104A536823F4004384E70D4A5368CA
:1025BC0023F0E06378E70B4A536823F0E06343F0C1
:1025CC00807371E7074A536823F0E06343F00073AC
:1025DC006AE7044A536823F0E06343F0806363E7DF
:1025EC00001002400000014091FAA1F3B3FA83F30A
:1025FC0070B50D0E0F2691FAA1F1B1FA81F1445983
:10260C009B0006FA03F3890024EA03048A40224360
:10261C00425170BD91FAA1F3B3FA83F370B50D0E6C
:10262C00042691FAA1F1B1FA81F144599B0006FA02
:10263C0003F3890024EA03048A402243425170BD0B
:10264C00431C04D00C3151F80C3C5A1C01D1002015
:10265C007047834201F10C01F5D101207047000055
:10266C00431C2DE9F34106460F4600D1FEE7594BBA
:10267C0000F00F02C0F3031001F0070853F82240DA
:10268C00FFF75EFDB8F1010F054615D194FAA4F3DE
:10269C00B3FA83F30321200E2A589B0001FA03F3AB
:1026AC0022EA030294FAA4F3B3FA83F39B00994051
:1026BC0011432950012213E0C7F30620B8F1030F90
:1026CC000AD801A353F828F0E7260008C126000811
:1026DC004B27000859270008FEE7FFF7BDFE08222C
:1026EC002146284608F1FF38FFF77EFFB8F1010FAD
:1026FC0006D817F0080218BF04222146FFF78AFFFC
:10270C0094FAA4F2230EB2FA82F2E9580F23920043
:10271C00934094FAA4F2B2FA82F2C7F301170B4079
:10272C009200012F23FA02F312D0022F3BD0082B78
:10273C0021D1042221462846FFF756FF1BE07F28B3
:10274C0001D10922CCE7FFF787FEFAE70022C7E7A1
:10275C00042B04D1082221462846FFF745FF230A03
:10276C0093FAA3F3B3FA83F20123E968934021EAC5
:10277C0014210B43EB60184B9A6942F001029A61E9
:10278C009B6903F001030193019BA6F10D03012B3F
:10279C0014D8124A536823F0E06343F0806353600B
:1027AC0002B0BDE8F081042B04D108222146284652
:1027BC00FFF71AFFEB6823EA1423DBE70F2E02D096
:1027CC00133E012EECD8054A536823F0E06343F026
:1027DC000073E4E77C380008001002400000014060
:1027EC000B685A1C01D100207047834201D1486804
:1027FC0070470C31F4E7431C01D0FFF7F1BF002008
:10280C0070474B6813B94FF0FF307047834201D1CA
:10281C00086870470C31F4E708B1FFF7F2BF4FF0CE
:10282C00FF3070470F4B1A6842F001021A6059686A
:10283C000D4A0A405A601A6822F0847222F48032DF
:10284C001A601A6822F480221A605A6822F4FE0276
:10285C005A604FF41F029A604FF00062034B9A606B
:10286C00704700BF001002400000FFF800ED00E0D0
:10287C00043870470368164A84B093420BD1154B49
:10288C009A6942F400629A619B6903F400630193B4
:10289C00019B04B07047B3F1804F0BD103F50433A7
:1028AC00DA6942F00102DA61DB6903F00103029399
:1028BC00029BEEE7084A9342EBD1064BDA6942F0F1
:1028CC000202DA61DB6903F002030393039BE0E786
:1028DC00002C0140001002400004004003680E4A26
:1028EC00934206D102F56442936923F40063936129
:1028FC007047B3F1804F05D1084AD36923F0010327
:10290C00D3617047064A9342FBD102F50332D36977
:10291C0023F00203F4E700BF002C0140001002403A
:10292C0000040040431C0AD0094B98420AD003F51E
:10293C009433984208D0B0F1804F07D0FEE76FF087
:10294C000D0070471D207047192070471C207047E0
:10295C0000040040431C0AD0094B98420AD003F5EE
:10296C009433984208D0B0F1804F07D0FEE76FF057
:10297C000D0070471D2070471B2070471C207047AE
:10298C000004004038B50446FFF774FF0068FFF7F9
:10299C00C9FFD4E91212FEF725F82068FFF7C2FF31
:1029AC00FEF750F822681046FFF7D4FF0546104694
:1029BC00FFF7B8FF85420BD0D4E912122846FEF778
:1029CC0011F82068FFF7C6FFBDE83840FEF73AB8AB
:1029DC0038BD0000431C0AD0084B98420BD003F5BD
:1029EC009433984205D0B0F1804F04D0FEE700201C
:1029FC007047022070470120704700BF0004004060
:102A0C0008B5074B90F8652053F82200FFF764F8DF
:102A1C0000F02200A0F122035842584108BD00BF2B
:102A2C002C03002008B5074B90F8652053F82200C2
:102A3C00FFF752F800F02100A0F121035842584151
:102A4C0008BD00BF2C03002038B515460446B8B1AC
:102A5C00016590F96400FEF703F8B4F87630E16E86
:102A6C009BB294F865001944064BAAB253F82000A7
:102A7C00FEF73AFE94F96400BDE83840FDF7E2BF7A
:102A8C0038BD00BF2C03002048B1836D013306D143
:102A9C0090F86520024B53F82200FEF7EDBF70470B
:102AAC002C03002048B1836D013306D190F86520CA
:102ABC00024B53F82200FEF7F7BF70472C0300209F
:102ACC00836C04381847C36C0438184730B5044677
:102ADC0050F8043985B01D6815F0010512D000229C
:102AEC0000921A6800925B680093009BFFF788FFC6
:102AFC0040BB0122204604F1620105B0BDE8304024
:102B0C00FFF709B8196811F0020106D001951A688F
:102B1C0001925B680193019BE8E71A6812F00402CA
:102B2C0006D002911A6802925B680293029BDDE761
:102B3C0019680907DAD503921A6803925B68039344
:102B4C00039BD3E705B030BD08B52520FDF7AEFFDC
:102B5C00024B1868BDE80840FEF744BE2C03002069
:102B6C00262008B5FDF7A2FF034B586818B1BDE845
:102B7C000840FEF737BE08BD2C03002003460A4967
:102B8C0010B508680344EFF30882934205D90C2270
:102B9C004FF0FF30054B1A6010BD054A054C121B57
:102BAC009342F4D20B60F7E7280000209C0500202C
:102BBC000028002000040000FEE700001622024B53
:102BCC004FF0FF301A6070479C05002001207047C1
:102BDC0010B594B0142200210CA800F00BFD1422A7
:102BEC0000210DEB020000F005FD1022002101A8D0
:102BFC0000F000FD02244FF480330122CDE9114393
:102C0C00CDE90A234FF4E0130AA80E921393FDF7B3
:102C1C00E3FF00B1FEE70F23CDE905344FF48063E9
:102C2C000790CDE90830214605A8FEF797F900B1C9
:102C3C00FEE7122301934FF40043CDE9033001A8C2
:102C4C00FEF766FA00B1FEE714B010BD2DE9F041B5
:102C5C0006460D460C468F18BC4202D1601BBDE8DF
:102C6C00F081A046336830461B6818F8011B984762
:102C7C000028F3D04446EFE770B505460C460846ED
:102C8C0049B1FDF747FA2B68024621462846BDE8B4
:102C9C0070405B68184770BD03688A685B68096898
:102CAC001847000008B50249FFF7E6FF08BD00BF52
:102CBC002538000838B50546FFF7EEFF04462846D0
:102CCC00FFF7F0FF204438BD10B5044600F0F8F9CA
:102CDC00E060236820465B699847002808DA00F01A
:102CEC00EFF9E368C01AA3689842F2D34FF0FF30B3
:102CFC0010BDF8B507460D460C468E18B44201D1EE
:102D0C00601BF8BD3846FFF7DFFF031EF8DB04F845
:102D1C00013BF3E72DE9F0410746884616461D4670
:102D2C0073B100243846FFF7CFFF031E05DB434584
:102D3C0003D033550134A542F4D12046BDE8F081CF
:102D4C001C46FAE738B50D460749044600F050F822
:102D5C002846FFF7B9FF002801DA204638BDC1B27A
:102D6C00204600F087F8F3E72738000810B5044632
:102D7C00006800F04BFB204610BD10B504460068FF
:102D8C0008B100F043FB0023C4E90133236010BDFC
:102D9C0038B504460D460068013100F0EDFB10B16A
:102DAC00C4E90005012038BD036810B5044613B111
:102DBC0043688B4207D22046FFF7EAFF20B1A36895
:102DCC000BB922681370012010BD70B50E46114668
:102DDC0004461546FFF7E8FF20B92046FFF7CDFF64
:102DEC00204670BD31462068A56000F041FCF7E735
:102DFC0038B5002304460D46C0E90033836039B171
:102E0C000846FDF787F9294602462046FFF7DDFF05
:102E1C00204638BD884210B50B46044604D00968DC
:102E2C0021B19A68FFF7D1FF204610BDFFF7A5FF2F
:102E3C00FAE7002310B50446C0E900338360FFF7BE
:102E4C00E9FF204610BD70B504460E46856809B9E9
:102E5C00002070BD62B115442946FFF7A5FF00287C
:102E6C00F6D02068A3683146184400F001FCA56038
:102E7C000120EEE7002307B501228DF8041001A90B
:102E8C008DF80530FFF7DFFF03B05DF804FB10B5DC
:102E9C008A6809680446FFF7D6FF10B92046FFF789
:102EAC006CFF204610BD826808B53AB921B108788C
:102EBC00B0FA80F0400900E0012008BD006809B9B3
:102ECC000078F5E7FDF71CF9F2E72DE9F04106680B
:102EDC000546E6B18468D4B1B046474618F8010BF4
:102EEC0000F080FB0028F8D1013C3444207800F03D
:102EFC0079FB70B9621CD21BBE42AA6003D2394660
:102F0C00304600F0BDFB00212A68AB68D154BDE807
:102F1C00F081A742EED8013CE8E708B50320FDF7A5
:102F2C004FFDBDE8084000F0DBB808B5AFF30080FA
:102F3C00FDF718F9FDF740F900F0C4F8FAE70000C6
:102F4C00FFF770FC0B480C490C4A002302E0D458E4
:102F5C00C4500433C4188C42F9D3094A094C0023D9
:102F6C0001E013600432A242FBD300F05BFBFFF7DD
:102F7C00DCFF7047000000207C0000201C3D000896
:102F8C007C000020A4050020FEE70000C3B2222B29
:102F9C002DE9F0410D462AD8274A00F4E06452F896
:102FAC0023301C43621C44D0244EC4F3031756F840
:102FBC00273004F00F0823FA08F3DB0710D520465E
:102FCC001F49FFF73DFB10B12046FFF7FDF801222A
:102FDC0056F8273002FA08F223EA020346F82730A3
:102FEC00052D15D8DFE805F015211B1D1F2300F05A
:102FFC00C002C02A1DD1C92B1BD8124B00F03F02B6
:10300C0053F822200C4B00F4E06453F82230C8E74C
:10301C00FEE700212046BDE8F041FFF721BB10215F
:10302C00F8E72021F6E70321F4E70121F2E7092173
:10303C00F0E7BDE8F08100BF303B0008340300200E
:10304C0034390008083B0008C3B2222B19D8184A9F
:10305C0000F4E06052F82330184310F0C00F02BFA8
:10306C00144BC0F3031253F82220134B00F00F0043
:10307C0053F8203018BF0022C3F30F23A9B11361FA
:10308C00704700F0C002C02A0CD1C92B0AD80B4BD8
:10309C0000F03F0253F82220054B00F4E06053F897
:1030AC002230D9E74FF0FF30D7E75361704700BFAC
:1030BC00303B00080C0000207C380008083B00085E
:1030CC00FFF7B0B808B5044B2BB1044800F00AF870
:1030DC0008B1AFF3008008BD0000000044030020DD
:1030EC00FFF7ECB8B0F80831B0F80421981A00F0EA
:1030FC003F007047B0F80831B0F804219BB29342FE
:10310C001ABFD0F8FC30985C4FF0FF30704790F845
:10311C000631B0F80A01C0B2834227BFC3F13F03A6
:10312C00C018C01A00F1FF30704707B503688DF85E
:10313C00071001225B680DF10701984703B05DF899
:10314C0004FB0000B0F87610826F10B50A4402F050
:10315C003F02A0F87620B0F87610B0F8722089B251
:10316C008A421AD0B0F876404032A4B2B0F8761049
:10317C00121B544289B204F03F0402F03F02C1F129
:10318C00400158BF62428A4228BF0A4604498267FE
:10319C00FFF75AFC4FF0FF3010BD0020FCE700BFDA
:1031AC00513100082DE9F843036804469B688846B2
:1031BC001646984701232374D4F8EC30B4F8067102
:1031CC0001338146C7F1400709D194F8103133B16E
:1031DC00002304F1940084F81031FFF755FC2368A8
:1031EC0020469B6898470028F9D03546AF4225D336
:1031FC004D4523D8B4F80631D4F800015A19402AA9
:10320C00184430D82A46414600F03AFA2F46B4F812
:10321C0006311D4405F03F05A4F8065104F1940550
:10322C002846FFF7FFFB30B93A4628461549C4F843
:10323C000C71FFF709FC3046BDE8F8834F4528BFF9
:10324C004F4623683A4641465B68204698472368B8
:10325C0020469B689847ED1BB844B4F8067181462C
:10326C00C7F14007C2E7C3F140073A46414600F0B8
:10327C0007FAD4F80001EA1B08EB070100F000FA8A
:10328C00C5E700BF51310008C0F8F030009B9142F7
:10329C0008BF4FF0FF31C0F8F43000F11103C0F853
:1032AC00FC300023C0E93A2100F15102A0F80831AA
:1032BC00C0E94023A0F80A3170470000F7B54FF47D
:1032CC007A7317460022C0E901231C4B04460360A5
:1032DC004FF0FF33C0F8EC30194B1A4E9C420D46A0
:1032EC00F06A05D1B36AC4F8EC30C4F8E8000AE01F
:1032FC001549FFF780FA854215D1B36AC4F8EC3052
:10330C00F36AC4F8E8304FF0FF33012F08BFC4F85C
:10331C00EC3000932046D4E93A214FF0FF33FFF70D
:10332C00B3FF03B0F0BD28460849FFF775FA06490C
:10333C00C4F8EC002846FFF76FFAD6E7C43B000848
:10334C0044030020303B000804390008D43800083E
:10335C00037C70B504460D46A3B1FDF72BFB064666
:10336C00B4F80621B4F80A319BB29A420AD0002D67
:10337C00F8D0FDF71FFB801B8542F1D8B4F80A3159
:10338C00A4F8063170BD0021FFF7E2BFD0F8EC3095
:10339C0010B5013304460ED10368DB68984794F8E6
:1033AC00103143B9012304F1940084F81031BDE8C5
:1033BC001040FFF777BB10BD10B50446FFF7E6FFD2
:1033CC00B4F80821B4F8043192B29A4217BFD4F879
:1033DC00FC204FF0FF30D05C01331CBF03F03F03E7
:1033EC00A4F8043110BD0000002202490248FFF786
:1033FC0065BF00BF0038014044030020024B01466A
:10340C00186800F02DB800BF2C000020024B0146BC
:10341C00186800F043B900BF2C00002070B50F4EA7
:10342C000C463168054611B900F0ECF830602146C5
:10343C00284600F0E7F8431C03D14FF0FF34204638
:10344C0070BDC41C24F00304A042F8D0211A2846F5
:10345C0000F0D8F80130F2D1EFE700BF5C04002097
:10346C002DE9F843CD1C25F0030508350C2D38BF8C
:10347C000C25002D064601DBA94204D90C23336030
:10348C000020BDE8F883DFF8D48000F069F8D8F8A4
:10349C0000301C4644BB29463046FFF7BFFF431C97
:1034AC00044658D1D8F800402746002F43D1002CB1
:1034BC004BD023683946304604EB030900F0A2F8E0
:1034CC00814542D1216830466D1A2946FFF7A6FF87
:1034DC0001303AD023682B442360D8F800305A6866
:1034EC0062BBC8F800700FE02268521B20D40B2A74
:1034FC0017D96119A342256018BF5960636808BFCA
:10350C00C8F8001062514B60304600F02FF804F1FF
:10351C000B00231D20F00700C21A1CBF1B1AA3505E
:10352C00AFE76268A3420CBFC8F800205A60EBE713
:10353C0023466468AEE73C467F68B6E71A465B688C
:10354C00A342FBD100235360DEE70C2330463360EB
:10355C0000F00CF894E70560D6E700BF600400208B
:10356C00014800F083B800BFA0050020014800F01E
:10357C007EB800BFA0050020024B0A460146186821
:10358C0000F002B82C0000202DE9F041074614464B
:10359C000D4621B91146BDE8F041FFF761BF2AB9CC
:1035AC0000F07CF825462846BDE8F08100F0BEF816
:1035BC008442064602D8B4EB500FF4D82146384664
:1035CC00FFF74EFF804608B94546ECE7B442224669
:1035DC00294628BF324600F053F82946384600F0F9
:1035EC005DF8F1E7024B0344587800F0080070478F
:1035FC00E83B000803460244934200D1704703F8AD
:10360C00011BF9E738B50023054D044608462B602D
:10361C00FFF7B4FA431C02D12B6803B1236038BD09
:10362C009C05002070B500260C4D0D4C641BA4109D
:10363C00A64209D100F0D2F800260A4D0A4C641BB0
:10364C00A410A64205D170BD55F8043B984701362D
:10365C00EEE755F8043B98470136F2E7F43C0008D6
:10366C00F43C0008F43C00080C3D0008704770471F
:10367C00034611F8012B03F8012B002AF9D17047EE
:10368C000A44914200F1FF3300D1704710B511F894
:10369C00014B914203F8014FF9D110BD38B50546E5
:1036AC00002940D051F8043C0C1F002BB8BFE41883
:1036BC00FFF756FF1C4A136833B963601460284641
:1036CC00BDE83840FFF752BFA34208D92068211843
:1036DC008B4201BF19685B6809182160EDE71A4637
:1036EC005B680BB1A342FAD911685018A0420BD1F8
:1036FC0020680144501883421160E0D118685B685F
:10370C00084410605360DAE702D90C232B60D6E72B
:10371C00206821188B4201BF19685B680918216069
:10372C0063605460CBE738BD6004002051F8043C62
:10373C00181F002BBCBF0B58C0187047062008B5CB
:10374C0000F02CF80120FFF737FA1F2938B5054691
:10375C000C4604D9162303604FF0FF3038BDC26B02
:10376C0012B152F821304BB9284600F031F82246FC
:10377C0001462846BDE8384000F018B8012B0AD0A5
:10378C00591C03D1162303600120E7E700212046D2
:10379C0042F8241098470020E0E70000024B014655
:1037AC001868FFF7D2BF00BF2C00002038B50023EB
:1037BC00064D0446084611462B60FFF7FFF9431CE3
:1037CC0002D12B6803B1236038BD00BF9C050020DB
:1037DC00FFF7FCB908B5FFF7B1FF0000F8B500BF63
:1037EC00F8BC08BC9E467047F8B500BFF8BC08BCD6
:0437FC009E4670472E
:10380000726564004F4E4C494E453A200067726520
:10381000656E00554E4B4E4F574E20434F4D4D4118
:103820004E443A20000D0A00000000000000000095
:1038300041050008592C0008B502000805030008DE
:10384000E7020008B902000815030008FF2C000871
:10385000212D0008AD040008C10400080102020384
:103860000405060708090A0B0C0D0E0F10100201C3
:1038700004030204081004004000000401010000D9
:1038800002020000040400000808000010100000FC
:103890002020000040400000808000000100010462
:1038A00002000204040004040800080410001004CC
:1038B000200020044000400480008004000000003C
:1038C00001020304000000000000000001020304E4
:1038D000060708090300000000440040100800002B
:1038E0000A00000000380140100600001700000028
:1038F0000038014010050000FFFFFFFF000000003E
:103900000000000002000000004400401208000017
:1039100009000000003801401206000016000000F7
:103920000038014012050000FFFFFFFF000000000B
:1039300000000000000000000000004012800000B5
:103940000001000000000040129000000100000093
:1039500000000040121201000101000000000040C0
:10396000121001000200000000000040129201004D
:10397000020100000000004012910100030000005D
:10398000000000401212020003010000000000408D
:103990001211020006000000000400401295000011
:1039A00007000000002C0140128D100007010000EC
:1039B000000400401215010008000000002C014026
:1039C000128E000008010000002C0140128D000042
:1039D00009000000002C0140120E01000901000046
:1039E000002C0140120D01000A000000002C0140D3
:1039F000128E01000A010000002C0140128D01000E
:103A00000B000000002C0140120E02000B01000010
:103A1000002C0140120D02000F00000000000040C9
:103A2000129100000F01000000000040128F000002
:103A300010000000002C0140120D110010010000C8
:103A40000004004012950100100200000004004034
:103A50001294010011000000002C0140128D110091
:103A600011010000000400401215020011020000C4
:103A70000004004012140200130000000000004087
:103A8000121101001301000000000040120F01009C
:103A90001400000000040040129400001500000013
:103AA00000040040121401001A0000000000004051
:103AB000129001001A01000000000040128F010066
:103AC0001B00000000000040121002001B0100005B
:103AD00000000040120F02001D000000002C0140F9
:103AE000128E10001E000000002C0140120E11006A
:103AF0001F000000002C0140128E1100FFFFFFFF8D
:103B0000000000000000000014000000150000008C
:103B10001600000017000000180000001900000047
:103B20001A0000001B0000001C0000001D00000027
:103B30001900000018000000170000001600000027
:103B40001500000014000000130000000F0000002A
:103B50000C0000000B0000000A000000090000003B
:103B6000080000001F0000001E0000001D000000F3
:103B70001C0000002D0000002E0000002F0000009F
:103B8000000000000100000002000000030000002F
:103B9000040000000500000006000000070000000F
:103BA00010000000110000001A0000001B000000BF
:103BB000120000000D0000000E00000000000000D8
:103BC0000000000037310008B13100081B31000847
:103BD00093330008F1300008C533000801310008B4
:103BE000FF2C0008212D000800202020202020206C
:103BF000202028282828282020202020202020209D
:103C000020202020202020202088101010101010AC
:103C100010101010101010101004040404040404F8
:103C20000404041010101010101041414141414192
:103C30000101010101010101010101010101010174
:103C40000101010110101010101042424242424284
:103C50000202020202020202020202020202020244
:103C600002020202101010102000000000000000EC
:103C70000000000000000000000000000000000044
:103C80000000000000000000000000000000000034
:103C90000000000000000000000000000000000024
:103CA0000000000000000000000000000000000014
:103CB0000000000000000000000000000000000004
:103CC00000000000000000000000000000000000F4
:103CD00000000000000000000000000000000000E4
:0C3CE000000000000000000000000000D8
:083CEC0020C4FF7F010000006D
:103CF400272F000855010008B50100081D09000818
:083D040071230008F5330008EB
:103D0C0031010008A90200082D0900084924000807
:103D1C00FFFFFFFF01000000100000000008014041
:103D2C00000C014000100140001401400030024022
:103D3C000000000000127A00A805002030000020CE
:103D4C000000000064040020CC0400203405002096
:103D5C000000000000000000000000000000000057
:103D6C000000000000000000000000000000000047
:103D7C000000000000000000000000000000000037
:0C3D8C000000000000000000000000002B
:0400000508002F4D73
:00000001FF
